{
  "_format": "hh-sol-artifact-1",
  "contractName": "AcademiaTrust",
  "sourceName": "contracts/AcademiaTrust.sol",
  "abi": [
    {
      "inputs": [],
      "stateMutability": "nonpayable",
      "type": "constructor"
    },
    {
      "anonymous": false,
      "inputs": [
        {
          "indexed": true,
          "internalType": "string",
          "name": "rollNumber",
          "type": "string"
        },
        {
          "indexed": false,
          "internalType": "bytes32",
          "name": "fileHash",
          "type": "bytes32"
        },
        {
          "indexed": false,
          "internalType": "string",
          "name": "studentName",
          "type": "string"
        },
        {
          "indexed": false,
          "internalType": "string",
          "name": "universityName",
          "type": "string"
        },
        {
          "indexed": true,
          "internalType": "address",
          "name": "issuedBy",
          "type": "address"
        },
        {
          "indexed": false,
          "internalType": "uint256",
          "name": "issuedAt",
          "type": "uint256"
        }
      ],
      "name": "CertificateIssued",
      "type": "event"
    },
    {
      "anonymous": false,
      "inputs": [
        {
          "indexed": true,
          "internalType": "address",
          "name": "issuer",
          "type": "address"
        }
      ],
      "name": "IssuerAdded",
      "type": "event"
    },
    {
      "anonymous": false,
      "inputs": [
        {
          "indexed": true,
          "internalType": "address",
          "name": "issuer",
          "type": "address"
        }
      ],
      "name": "IssuerRemoved",
      "type": "event"
    },
    {
      "inputs": [
        {
          "internalType": "address",
          "name": "_issuer",
          "type": "address"
        }
      ],
      "name": "addIssuer",
      "outputs": [],
      "stateMutability": "nonpayable",
      "type": "function"
    },
    {
      "inputs": [
        {
          "internalType": "address",
          "name": "",
          "type": "address"
        }
      ],
      "name": "authorizedIssuers",
      "outputs": [
        {
          "internalType": "bool",
          "name": "",
          "type": "bool"
        }
      ],
      "stateMutability": "view",
      "type": "function"
    },
    {
      "inputs": [
        {
          "internalType": "string",
          "name": "_rollNumber",
          "type": "string"
        }
      ],
      "name": "certificateExists",
      "outputs": [
        {
          "internalType": "bool",
          "name": "",
          "type": "bool"
        }
      ],
      "stateMutability": "view",
      "type": "function"
    },
    {
      "inputs": [
        {
          "internalType": "string",
          "name": "_rollNumber",
          "type": "string"
        }
      ],
      "name": "getCertificateDetails",
      "outputs": [
        {
          "internalType": "string",
          "name": "rollNumber",
          "type": "string"
        },
        {
          "internalType": "string",
          "name": "studentName",
          "type": "string"
        },
        {
          "internalType": "string",
          "name": "universityName",
          "type": "string"
        },
        {
          "internalType": "string",
          "name": "degree",
          "type": "string"
        },
        {
          "internalType": "string",
          "name": "fileHashHex",
          "type": "string"
        },
        {
          "internalType": "uint256",
          "name": "issuedAt",
          "type": "uint256"
        },
        {
          "internalType": "address",
          "name": "issuedBy",
          "type": "address"
        }
      ],
      "stateMutability": "view",
      "type": "function"
    },
    {
      "inputs": [
        {
          "internalType": "string",
          "name": "_rollNumber",
          "type": "string"
        },
        {
          "internalType": "string",
          "name": "_fileHashHex",
          "type": "string"
        },
        {
          "internalType": "string",
          "name": "_studentName",
          "type": "string"
        },
        {
          "internalType": "string",
          "name": "_universityName",
          "type": "string"
        },
        {
          "internalType": "string",
          "name": "_degree",
          "type": "string"
        }
      ],
      "name": "issueCertificate",
      "outputs": [],
      "stateMutability": "nonpayable",
      "type": "function"
    },
    {
      "inputs": [],
      "name": "owner",
      "outputs": [
        {
          "internalType": "address",
          "name": "",
          "type": "address"
        }
      ],
      "stateMutability": "view",
      "type": "function"
    },
    {
      "inputs": [
        {
          "internalType": "address",
          "name": "_issuer",
          "type": "address"
        }
      ],
      "name": "removeIssuer",
      "outputs": [],
      "stateMutability": "nonpayable",
      "type": "function"
    },
    {
      "inputs": [
        {
          "internalType": "string",
          "name": "_rollNumber",
          "type": "string"
        },
        {
          "internalType": "string",
          "name": "_fileHashHex",
          "type": "string"
        }
      ],
      "name": "verifyCertificate",
      "outputs": [
        {
          "internalType": "bool",
          "name": "verified",
          "type": "bool"
        }
      ],
      "stateMutability": "view",
      "type": "function"
    }
  ],
  "bytecode": "0x608060405234801561001057600080fd5b50600080546001600160a01b0319163390811782558152600260205260409020805460ff191660011790556112708061004a6000396000f3fe608060405234801561001057600080fd5b50600436106100885760003560e01c806347bc70931161005b57806347bc7093146100f05780638da5cb5b14610103578063f731fa0f1461012e578063fa433b361461015157600080fd5b80630655f0371461008d57806320694db0146100b55780632751f71b146100ca57806335318158146100dd575b600080fd5b6100a061009b366004610d3c565b610177565b60405190151581526020015b60405180910390f35b6100c86100c3366004610d79565b6101ad565b005b6100a06100d8366004610da9565b61022c565b6100c86100eb366004610e0d565b6102a1565b6100c86100fe366004610d79565b6105db565b600054610116906001600160a01b031681565b6040516001600160a01b0390911681526020016100ac565b6100a061013c366004610d79565b60026020526000908152604090205460ff1681565b61016461015f366004610d3c565b61064e565b6040516100ac9796959493929190610f2f565b60006001826040516101899190610fb5565b9081526040519081900360200190206006015460ff600160a01b9091041692915050565b6000546001600160a01b031633146101e05760405162461bcd60e51b81526004016101d790610fd1565b60405180910390fd5b6001600160a01b038116600081815260026020526040808220805460ff19166001179055517f05e7c881d716bee8cb7ed92293133ba156704252439e5c502c277448f04e20c29190a250565b600060018360405161023e9190610fb5565b9081526040519081900360200190206006015460ff600160a01b909104166102685750600061029b565b60006102738361094f565b9050806001856040516102869190610fb5565b90815260405190819003602001902054149150505b92915050565b3360009081526002602052604090205460ff16806102c957506000546001600160a01b031633145b61032f5760405162461bcd60e51b815260206004820152603160248201527f41636164656d696154727573743a2063616c6c6572206973206e6f7420616e2060448201527030baba3437b934bd32b21034b9b9bab2b960791b60648201526084016101d7565b60008551116103775760405162461bcd60e51b8152602060048201526014602482015273149bdb1b081b9d5b58995c881c995c5d5a5c995960621b60448201526064016101d7565b83516040146103dc5760405162461bcd60e51b815260206004820152602b60248201527f496e76616c6964205348412d323536206861736820286d75737420626520363460448201526a206865782063686172732960a81b60648201526084016101d7565b6001856040516103ec9190610fb5565b9081526040519081900360200190206006015460ff600160a01b909104161561046f5760405162461bcd60e51b815260206004820152602f60248201527f436572746966696361746520616c72656164792069737375656420666f72207460448201526e3434b9903937b63610373ab6b132b960891b60648201526084016101d7565b600061047a8561094f565b9050604051806101000160405280828152602001878152602001858152602001848152602001838152602001428152602001336001600160a01b03168152602001600115158152506001876040516104d29190610fb5565b90815260405160209181900382019020825181559082015160018201906104f9908261109c565b506040820151600282019061050e908261109c565b5060608201516003820190610523908261109c565b5060808201516004820190610538908261109c565b5060a0820151600582015560c08201516006909101805460e0909301511515600160a01b026001600160a81b03199093166001600160a01b0390921691909117919091179055604051339061058e908890610fb5565b60405180910390207f112aaed27ec41ad8df8c675a5792e39d6167accab8b78e2108b0891ea2f4298f838787426040516105cb949392919061115c565b60405180910390a3505050505050565b6000546001600160a01b031633146106055760405162461bcd60e51b81526004016101d790610fd1565b6001600160a01b038116600081815260026020526040808220805460ff19169055517faf66545c919a3be306ee446d8f42a9558b5b022620df880517bc9593ec0f2d529190a250565b6060806060806060600080600060018960405161066b9190610fb5565b908152604051908190036020019020600681015490915060ff600160a01b909104166106d15760405162461bcd60e51b815260206004820152601560248201527410d95c9d1a599a58d85d19481b9bdd08199bdd5b99605a1b60448201526064016101d7565b806001018160020182600301836004016106ee8560000154610a37565b6005860154600687015486546001600160a01b0390911690879061071190611013565b80601f016020809104026020016040519081016040528092919081815260200182805461073d90611013565b801561078a5780601f1061075f5761010080835404028352916020019161078a565b820191906000526020600020905b81548152906001019060200180831161076d57829003601f168201915b5050505050965085805461079d90611013565b80601f01602080910402602001604051908101604052809291908181526020018280546107c990611013565b80156108165780601f106107eb57610100808354040283529160200191610816565b820191906000526020600020905b8154815290600101906020018083116107f957829003601f168201915b5050505050955084805461082990611013565b80601f016020809104026020016040519081016040528092919081815260200182805461085590611013565b80156108a25780601f10610877576101008083540402835291602001916108a2565b820191906000526020600020905b81548152906001019060200180831161088557829003601f168201915b505050505094508380546108b590611013565b80601f01602080910402602001604051908101604052809291908181526020018280546108e190611013565b801561092e5780601f106109035761010080835404028352916020019161092e565b820191906000526020600020905b81548152906001019060200180831161091157829003601f168201915b50505050509350975097509750975097509750975050919395979092949650565b805160009082906040146109a55760405162461bcd60e51b815260206004820152601b60248201527f45787065637465642036342d636861722068657820737472696e67000000000060448201526064016101d7565b60005b6040811015610a30576109e4826109c08360016111af565b815181106109d0576109d06111c2565b01602001516001600160f81b031916610b91565b60ff166109fc8383815181106109d0576109d06111c2565b610a0a9060ff1660106111d8565b610a1491906111af565b60089390931b90921791610a296002826111af565b90506109a8565b5050919050565b604080518082018252601081526f181899199a1a9b1b9c1cb0b131b232b360811b6020820152815182815260608181018452926000919060208201818036833701905050905060005b6020811015610b8957826004868360208110610a9e57610a9e6111c2565b835191901a90911c60ff16908110610ab857610ab86111c2565b01602001516001600160f81b03191682610ad38360026111d8565b81518110610ae357610ae36111c2565b60200101906001600160f81b031916908160001a90535082858260208110610b0d57610b0d6111c2565b1a60f81b60f81c600f1660ff1681518110610b2a57610b2a6111c2565b01602001516001600160f81b03191682610b458360026111d8565b610b509060016111af565b81518110610b6057610b606111c2565b60200101906001600160f81b031916908160001a90535080610b81816111ef565b915050610a80565b509392505050565b6000600360fc1b6001600160f81b0319831610801590610bbf5750603960f81b6001600160f81b0319831611155b15610bd35761029b603060f884901c611208565b606160f81b6001600160f81b0319831610801590610bff5750603360f91b6001600160f81b0319831611155b15610c1e57610c13606160f884901c611208565b61029b90600a611221565b604160f81b6001600160f81b0319831610801590610c4a5750602360f91b6001600160f81b0319831611155b15610c5e57610c13604160f884901c611208565b60405162461bcd60e51b815260206004820152601060248201526f24b73b30b634b2103432bc1031b430b960811b60448201526064016101d7565b634e487b7160e01b600052604160045260246000fd5b600082601f830112610cc057600080fd5b813567ffffffffffffffff80821115610cdb57610cdb610c99565b604051601f8301601f19908116603f01168101908282118183101715610d0357610d03610c99565b81604052838152866020858801011115610d1c57600080fd5b836020870160208301376000602085830101528094505050505092915050565b600060208284031215610d4e57600080fd5b813567ffffffffffffffff811115610d6557600080fd5b610d7184828501610caf565b949350505050565b600060208284031215610d8b57600080fd5b81356001600160a01b0381168114610da257600080fd5b9392505050565b60008060408385031215610dbc57600080fd5b823567ffffffffffffffff80821115610dd457600080fd5b610de086838701610caf565b93506020850135915080821115610df657600080fd5b50610e0385828601610caf565b9150509250929050565b600080600080600060a08688031215610e2557600080fd5b853567ffffffffffffffff80821115610e3d57600080fd5b610e4989838a01610caf565b96506020880135915080821115610e5f57600080fd5b610e6b89838a01610caf565b95506040880135915080821115610e8157600080fd5b610e8d89838a01610caf565b94506060880135915080821115610ea357600080fd5b610eaf89838a01610caf565b93506080880135915080821115610ec557600080fd5b50610ed288828901610caf565b9150509295509295909350565b60005b83811015610efa578181015183820152602001610ee2565b50506000910152565b60008151808452610f1b816020860160208601610edf565b601f01601f19169290920160200192915050565b60e081526000610f4260e083018a610f03565b8281036020840152610f54818a610f03565b90508281036040840152610f688189610f03565b90508281036060840152610f7c8188610f03565b90508281036080840152610f908187610f03565b60a084019590955250506001600160a01b039190911660c09091015295945050505050565b60008251610fc7818460208701610edf565b9190910192915050565b60208082526022908201527f41636164656d696154727573743a2063616c6c6572206973206e6f74206f776e60408201526132b960f11b606082015260800190565b600181811c9082168061102757607f821691505b60208210810361104757634e487b7160e01b600052602260045260246000fd5b50919050565b601f82111561109757600081815260208120601f850160051c810160208610156110745750805b601f850160051c820191505b8181101561109357828155600101611080565b5050505b505050565b815167ffffffffffffffff8111156110b6576110b6610c99565b6110ca816110c48454611013565b8461104d565b602080601f8311600181146110ff57600084156110e75750858301515b600019600386901b1c1916600185901b178555611093565b600085815260208120601f198616915b8281101561112e5788860151825594840194600190910190840161110f565b508582101561114c5787850151600019600388901b60f8161c191681555b5050505050600190811b01905550565b8481526080602082015260006111756080830186610f03565b82810360408401526111878186610f03565b91505082606083015295945050505050565b634e487b7160e01b600052601160045260246000fd5b8082018082111561029b5761029b611199565b634e487b7160e01b600052603260045260246000fd5b808202811582820484141761029b5761029b611199565b60006001820161120157611201611199565b5060010190565b60ff828116828216039081111561029b5761029b611199565b60ff818116838216019081111561029b5761029b61119956fea26469706673582212203c1cfd3283abc9b26ef05328f7e34a73def3418c255880e6977c59b0c19346ff64736f6c63430008140033",
  "linkReferences": {},
  "deployedLinkReferences": {}
}