{
  "_format": "hh-sol-artifact-1",
  "contractName": "TrueDegree",
  "sourceName": "contracts/TrueDegree.sol",
  "abi": [
    {
      "inputs": [],
      "stateMutability": "nonpayable",
      "type": "constructor"
    },
    {
      "anonymous": false,
      "inputs": [
        {
          "indexed": true,
          "internalType": "string",
          "name": "rollNumber",
          "type": "string"
        },
        {
          "indexed": false,
          "internalType": "bytes32",
          "name": "fileHash",
          "type": "bytes32"
        },
        {
          "indexed": false,
          "internalType": "string",
          "name": "studentName",
          "type": "string"
        },
        {
          "indexed": false,
          "internalType": "string",
          "name": "universityName",
          "type": "string"
        },
        {
          "indexed": true,
          "internalType": "address",
          "name": "issuedBy",
          "type": "address"
        },
        {
          "indexed": false,
          "internalType": "uint256",
          "name": "issuedAt",
          "type": "uint256"
        }
      ],
      "name": "CertificateIssued",
      "type": "event"
    },
    {
      "anonymous": false,
      "inputs": [
        {
          "indexed": true,
          "internalType": "address",
          "name": "issuer",
          "type": "address"
        }
      ],
      "name": "IssuerAdded",
      "type": "event"
    },
    {
      "anonymous": false,
      "inputs": [
        {
          "indexed": true,
          "internalType": "address",
          "name": "issuer",
          "type": "address"
        }
      ],
      "name": "IssuerRemoved",
      "type": "event"
    },
    {
      "inputs": [
        {
          "internalType": "address",
          "name": "_issuer",
          "type": "address"
        }
      ],
      "name": "addIssuer",
      "outputs": [],
      "stateMutability": "nonpayable",
      "type": "function"
    },
    {
      "inputs": [
        {
          "internalType": "address",
          "name": "",
          "type": "address"
        }
      ],
      "name": "authorizedIssuers",
      "outputs": [
        {
          "internalType": "bool",
          "name": "",
          "type": "bool"
        }
      ],
      "stateMutability": "view",
      "type": "function"
    },
    {
      "inputs": [
        {
          "internalType": "string",
          "name": "_rollNumber",
          "type": "string"
        }
      ],
      "name": "certificateExists",
      "outputs": [
        {
          "internalType": "bool",
          "name": "",
          "type": "bool"
        }
      ],
      "stateMutability": "view",
      "type": "function"
    },
    {
      "inputs": [
        {
          "internalType": "string",
          "name": "_rollNumber",
          "type": "string"
        }
      ],
      "name": "getCertificateDetails",
      "outputs": [
        {
          "internalType": "string",
          "name": "rollNumber",
          "type": "string"
        },
        {
          "internalType": "string",
          "name": "studentName",
          "type": "string"
        },
        {
          "internalType": "string",
          "name": "universityName",
          "type": "string"
        },
        {
          "internalType": "string",
          "name": "degree",
          "type": "string"
        },
        {
          "internalType": "string",
          "name": "fileHashHex",
          "type": "string"
        },
        {
          "internalType": "uint256",
          "name": "issuedAt",
          "type": "uint256"
        },
        {
          "internalType": "address",
          "name": "issuedBy",
          "type": "address"
        }
      ],
      "stateMutability": "view",
      "type": "function"
    },
    {
      "inputs": [
        {
          "internalType": "string",
          "name": "_rollNumber",
          "type": "string"
        },
        {
          "internalType": "string",
          "name": "_fileHashHex",
          "type": "string"
        },
        {
          "internalType": "string",
          "name": "_studentName",
          "type": "string"
        },
        {
          "internalType": "string",
          "name": "_universityName",
          "type": "string"
        },
        {
          "internalType": "string",
          "name": "_degree",
          "type": "string"
        }
      ],
      "name": "issueCertificate",
      "outputs": [],
      "stateMutability": "nonpayable",
      "type": "function"
    },
    {
      "inputs": [],
      "name": "owner",
      "outputs": [
        {
          "internalType": "address",
          "name": "",
          "type": "address"
        }
      ],
      "stateMutability": "view",
      "type": "function"
    },
    {
      "inputs": [
        {
          "internalType": "address",
          "name": "_issuer",
          "type": "address"
        }
      ],
      "name": "removeIssuer",
      "outputs": [],
      "stateMutability": "nonpayable",
      "type": "function"
    },
    {
      "inputs": [
        {
          "internalType": "string",
          "name": "_rollNumber",
          "type": "string"
        },
        {
          "internalType": "string",
          "name": "_fileHashHex",
          "type": "string"
        }
      ],
      "name": "verifyCertificate",
      "outputs": [
        {
          "internalType": "bool",
          "name": "verified",
          "type": "bool"
        }
      ],
      "stateMutability": "view",
      "type": "function"
    }
  ],
  "bytecode": "0x608060405234801561001057600080fd5b50600080546001600160a01b0319163390811782558152600260205260409020805460ff191660011790556112878061004a6000396000f3fe608060405234801561001057600080fd5b50600436106100885760003560e01c806347bc70931161005b57806347bc7093146100f05780638da5cb5b14610103578063f731fa0f1461012e578063fa433b361461015157600080fd5b80630655f0371461008d57806320694db0146100b55780632751f71b146100ca57806335318158146100dd575b600080fd5b6100a061009b366004610d95565b610177565b60405190151581526020015b60405180910390f35b6100c86100c3366004610dd2565b6101ad565b005b6100a06100d8366004610e02565b610258565b6100c86100eb366004610e66565b6102cd565b6100c86100fe366004610dd2565b610604565b600054610116906001600160a01b031681565b6040516001600160a01b0390911681526020016100ac565b6100a061013c366004610dd2565b60026020526000908152604090205460ff1681565b61016461015f366004610d95565b6106a7565b6040516100ac9796959493929190610f88565b6000600182604051610189919061100e565b9081526040519081900360200190206006015460ff600160a01b9091041692915050565b6000546001600160a01b0316331461020c5760405162461bcd60e51b815260206004820152601f60248201527f547275654465677265653a2063616c6c6572206973206e6f74206f776e65720060448201526064015b60405180910390fd5b6001600160a01b038116600081815260026020526040808220805460ff19166001179055517f05e7c881d716bee8cb7ed92293133ba156704252439e5c502c277448f04e20c29190a250565b600060018360405161026a919061100e565b9081526040519081900360200190206006015460ff600160a01b90910416610294575060006102c7565b600061029f836109a8565b9050806001856040516102b2919061100e565b90815260405190819003602001902054149150505b92915050565b3360009081526002602052604090205460ff16806102f557506000546001600160a01b031633145b6103585760405162461bcd60e51b815260206004820152602e60248201527f547275654465677265653a2063616c6c6572206973206e6f7420616e2061757460448201526d3437b934bd32b21034b9b9bab2b960911b6064820152608401610203565b60008551116103a05760405162461bcd60e51b8152602060048201526014602482015273149bdb1b081b9d5b58995c881c995c5d5a5c995960621b6044820152606401610203565b83516040146104055760405162461bcd60e51b815260206004820152602b60248201527f496e76616c6964205348412d323536206861736820286d75737420626520363460448201526a206865782063686172732960a81b6064820152608401610203565b600185604051610415919061100e565b9081526040519081900360200190206006015460ff600160a01b90910416156104985760405162461bcd60e51b815260206004820152602f60248201527f436572746966696361746520616c72656164792069737375656420666f72207460448201526e3434b9903937b63610373ab6b132b960891b6064820152608401610203565b60006104a3856109a8565b9050604051806101000160405280828152602001878152602001858152602001848152602001838152602001428152602001336001600160a01b03168152602001600115158152506001876040516104fb919061100e565b908152604051602091819003820190208251815590820151600182019061052290826110b3565b506040820151600282019061053790826110b3565b506060820151600382019061054c90826110b3565b506080820151600482019061056190826110b3565b5060a0820151600582015560c08201516006909101805460e0909301511515600160a01b026001600160a81b03199093166001600160a01b039092169190911791909117905560405133906105b790889061100e565b60405180910390207f112aaed27ec41ad8df8c675a5792e39d6167accab8b78e2108b0891ea2f4298f838787426040516105f49493929190611173565b60405180910390a3505050505050565b6000546001600160a01b0316331461065e5760405162461bcd60e51b815260206004820152601f60248201527f547275654465677265653a2063616c6c6572206973206e6f74206f776e6572006044820152606401610203565b6001600160a01b038116600081815260026020526040808220805460ff19169055517faf66545c919a3be306ee446d8f42a9558b5b022620df880517bc9593ec0f2d529190a250565b606080606080606060008060006001896040516106c4919061100e565b908152604051908190036020019020600681015490915060ff600160a01b9091041661072a5760405162461bcd60e51b815260206004820152601560248201527410d95c9d1a599a58d85d19481b9bdd08199bdd5b99605a1b6044820152606401610203565b806001018160020182600301836004016107478560000154610a90565b6005860154600687015486546001600160a01b0390911690879061076a9061102a565b80601f01602080910402602001604051908101604052809291908181526020018280546107969061102a565b80156107e35780601f106107b8576101008083540402835291602001916107e3565b820191906000526020600020905b8154815290600101906020018083116107c657829003601f168201915b505050505096508580546107f69061102a565b80601f01602080910402602001604051908101604052809291908181526020018280546108229061102a565b801561086f5780601f106108445761010080835404028352916020019161086f565b820191906000526020600020905b81548152906001019060200180831161085257829003601f168201915b505050505095508480546108829061102a565b80601f01602080910402602001604051908101604052809291908181526020018280546108ae9061102a565b80156108fb5780601f106108d0576101008083540402835291602001916108fb565b820191906000526020600020905b8154815290600101906020018083116108de57829003601f168201915b5050505050945083805461090e9061102a565b80601f016020809104026020016040519081016040528092919081815260200182805461093a9061102a565b80156109875780601f1061095c57610100808354040283529160200191610987565b820191906000526020600020905b81548152906001019060200180831161096a57829003601f168201915b50505050509350975097509750975097509750975050919395979092949650565b805160009082906040146109fe5760405162461bcd60e51b815260206004820152601b60248201527f45787065637465642036342d636861722068657820737472696e6700000000006044820152606401610203565b60005b6040811015610a8957610a3d82610a198360016111c6565b81518110610a2957610a296111d9565b01602001516001600160f81b031916610bea565b60ff16610a55838381518110610a2957610a296111d9565b610a639060ff1660106111ef565b610a6d91906111c6565b60089390931b90921791610a826002826111c6565b9050610a01565b5050919050565b604080518082018252601081526f181899199a1a9b1b9c1cb0b131b232b360811b6020820152815182815260608181018452926000919060208201818036833701905050905060005b6020811015610be257826004868360208110610af757610af76111d9565b835191901a90911c60ff16908110610b1157610b116111d9565b01602001516001600160f81b03191682610b2c8360026111ef565b81518110610b3c57610b3c6111d9565b60200101906001600160f81b031916908160001a90535082858260208110610b6657610b666111d9565b1a60f81b60f81c600f1660ff1681518110610b8357610b836111d9565b01602001516001600160f81b03191682610b9e8360026111ef565b610ba99060016111c6565b81518110610bb957610bb96111d9565b60200101906001600160f81b031916908160001a90535080610bda81611206565b915050610ad9565b509392505050565b6000600360fc1b6001600160f81b0319831610801590610c185750603960f81b6001600160f81b0319831611155b15610c2c576102c7603060f884901c61121f565b606160f81b6001600160f81b0319831610801590610c585750603360f91b6001600160f81b0319831611155b15610c7757610c6c606160f884901c61121f565b6102c790600a611238565b604160f81b6001600160f81b0319831610801590610ca35750602360f91b6001600160f81b0319831611155b15610cb757610c6c604160f884901c61121f565b60405162461bcd60e51b815260206004820152601060248201526f24b73b30b634b2103432bc1031b430b960811b6044820152606401610203565b634e487b7160e01b600052604160045260246000fd5b600082601f830112610d1957600080fd5b813567ffffffffffffffff80821115610d3457610d34610cf2565b604051601f8301601f19908116603f01168101908282118183101715610d5c57610d5c610cf2565b81604052838152866020858801011115610d7557600080fd5b836020870160208301376000602085830101528094505050505092915050565b600060208284031215610da757600080fd5b813567ffffffffffffffff811115610dbe57600080fd5b610dca84828501610d08565b949350505050565b600060208284031215610de457600080fd5b81356001600160a01b0381168114610dfb57600080fd5b9392505050565b60008060408385031215610e1557600080fd5b823567ffffffffffffffff80821115610e2d57600080fd5b610e3986838701610d08565b93506020850135915080821115610e4f57600080fd5b50610e5c85828601610d08565b9150509250929050565b600080600080600060a08688031215610e7e57600080fd5b853567ffffffffffffffff80821115610e9657600080fd5b610ea289838a01610d08565b96506020880135915080821115610eb857600080fd5b610ec489838a01610d08565b95506040880135915080821115610eda57600080fd5b610ee689838a01610d08565b94506060880135915080821115610efc57600080fd5b610f0889838a01610d08565b93506080880135915080821115610f1e57600080fd5b50610f2b88828901610d08565b9150509295509295909350565b60005b83811015610f53578181015183820152602001610f3b565b50506000910152565b60008151808452610f74816020860160208601610f38565b601f01601f19169290920160200192915050565b60e081526000610f9b60e083018a610f5c565b8281036020840152610fad818a610f5c565b90508281036040840152610fc18189610f5c565b90508281036060840152610fd58188610f5c565b90508281036080840152610fe98187610f5c565b60a084019590955250506001600160a01b039190911660c09091015295945050505050565b60008251611020818460208701610f38565b9190910192915050565b600181811c9082168061103e57607f821691505b60208210810361105e57634e487b7160e01b600052602260045260246000fd5b50919050565b601f8211156110ae57600081815260208120601f850160051c8101602086101561108b5750805b601f850160051c820191505b818110156110aa57828155600101611097565b5050505b505050565b815167ffffffffffffffff8111156110cd576110cd610cf2565b6110e1816110db845461102a565b84611064565b602080601f83116001811461111657600084156110fe5750858301515b600019600386901b1c1916600185901b1785556110aa565b600085815260208120601f198616915b8281101561114557888601518255948401946001909101908401611126565b50858210156111635787850151600019600388901b60f8161c191681555b5050505050600190811b01905550565b84815260806020820152600061118c6080830186610f5c565b828103604084015261119e8186610f5c565b91505082606083015295945050505050565b634e487b7160e01b600052601160045260246000fd5b808201808211156102c7576102c76111b0565b634e487b7160e01b600052603260045260246000fd5b80820281158282048414176102c7576102c76111b0565b600060018201611218576112186111b0565b5060010190565b60ff82811682821603908111156102c7576102c76111b0565b60ff81811683821601908111156102c7576102c76111b056fea2646970667358221220311b512ce4c18ac80bd059e5815afc9a7054a57ff122b9a7f53c43148f93eef364736f6c63430008140033",
  "linkReferences": {},
  "deployedLinkReferences": {}
}